:0300000002093EB4
:0C093E00787FE4F6D8FD758109020800FE
:10080000D290E4F5B0209017E509450870117F6497
:10081000FE1208F712091775080075090180E62015
:100820009019E5096401450870117F64FE1208F70C
:1008300012092B75080075090280CA209019E50974
:100840006402450870117F64FE1208F71208BF7534
:10085000080075090380AE209019E5096403450876
:1008600070117F64FE1208F712088E750800750972
:1008700004809220908FE5096404450870877F64A6
:0E088000FE1208F7E4F5B0F508F509020805C8
:1009170075B0557FFA7E001208F775B0AA7FFA7E88
:04092700000208F7CB
:10088E0075B0011208F31208F075B0041208F37572
:10089E00B0081208F375B0101208F375B0201208E4
:1008AE00F375B0401208F375B0807F197E00020810
:0108BE00F742
:1008BF0075B0801208F375B0401208F375B02012AE
:1008CF0008F375B0101208F375B0081208F375B07D
:1008DF00041208F31208F075B0017F197E000208A8
:0108EF00F711
:10092B00E4F5B07F19FE1208F775B0FF7F197E0052
:03093B000208F7B8
:0708F00075B0027F197E00C4
:1008F700E4FDFCC3ED9FEC9E5015E4FBFA0BBB0037
:0F090700010ABA03F8BBE8F50DBD00010C80E44E
:0109160022BE
:00000001FF
