:0300000002089360
:0C089300787FE4F6D8FD758107020800AC
:10080000E4F5A075A001E4FFFE0FBF00010EBE27B6
:10081000F8BF11F575A002E4FEFF0FBF00010EBE88
:1008200027F8BF11F575A004E4FEFF0FBF00010E0D
:10083000BE27F8BF11F575A008E4FEFF0FBF000149
:100840000EBE27F8BF11F575A010E4FEFF0FBF0024
:10085000010EBE27F8BF11F575A020E4FEFF0FBF03
:1008600000010EBE27F8BF11F575A040E4FEFF0F92
:10087000BF00010EBE27F8BF11F575A080E4FEFF92
:10088000D3EF9410EE942740030208030FBF00013A
:030890000E80EDEA
:00000001FF
