:0300000002090CE6
:0C090C00787FE4F6D8FD75810702080032
:10080000E4F5B075B080E4F583F582AF82AE83E4A1
:10081000FCFD7B607AEAF9F8C31208F64003A38076
:10082000EA75B040E4F583F582AF82AE83E4FCFD67
:100830007B607AEAF9F8C31208F64003A380EA75F0
:10084000B020E4F583F582AF82AE83E4FCFD7B60EB
:100850007AEAF9F8C31208F64003A380EA75B010EB
:10086000E4F583F582AF82AE83E4FCFD7B607AEA37
:10087000F9F8C31208F64003A380EA75B008E4F55E
:1008800083F582AF82AE83E4FCFD7B607AEAF9F8FF
:10089000C31208F64003A380EA75B004E4F583F5BB
:1008A00082AF82AE83E4FCFD7B607AEAF9F8C31282
:1008B00008F64003A380EA75B002E4F583F582AF41
:1008C00082AE83E4FCFD7B607AEAF9F8C31208F695
:1008D0004003A380EA75B001E4F583F582AF82AEF0
:1008E00083E4FCFD7B607AEAF9F8C31208F6500352
:0608F000020803A380E7EB
:1008F600EB9FF5F0EA9E42F0E99D42F0EC6480C879
:0609060064809845F02218
:00000001FF
