:030000000208AB48
:0C08AB00787FE4F6D8FD75810702080094
:10080000E4F590F582F583AF82AE83E4FCFD7B4096
:100810007A9CF9F8C31208954003A380EA75900208
:10082000E4F583F582AF82AE83E4FCFD7B407A9CE5
:10083000F9F8C31208954003A380EA759008E4F51F
:1008400083F582AF82AE83E4FCFD7B407A9CF9F8AD
:10085000C31208954003A380EA759020E4F583F560
:1008600082AF82AE83E4FCFD7B407A9CF9F8C31230
:1008700008954003A380EA759080E4F583F582AF84
:1008800082AE83E4FCFD7B407A9CF9F8C3120895A4
:05089000408BA380EA8B
:10089500EB9FF5F0EA9E42F0E99D42F0EC6480C8DA
:0608A50064809845F0227A
:00000001FF
