:030000000208549F
:0C085400787FE4F6D8FD75810702086C7F
:08086C00E4F59012086080FB26
:05087400D290D2972292
:05087900C290C29722AD
:05087E00D291D2962288
:05088300C291C29622A3
:05088800D292D295227E
:05088D00C292C2952299
:05089200D293D2942274
:05089700C293C294228F
:0D0820001208741208977FF47E0102080090
:0D082D0012087E1208797FF47E0102080097
:0D083A001208881208837FF47E0102080076
:0D08470012089212088D7FF47E0102080055
:0C08600012082012082D12083A02084766
:10080000E4FDFCC3ED9FEC9E5015E4FBFA0BBB002E
:0F081000010ABA03F8BBE8F50DBD00010C80E446
:01081F0022B6
:00000001FF
